{
  "contractName": "Hiring",
  "abi": [
    {
      "constant": true,
      "inputs": [
        {
          "name": "",
          "type": "uint256"
        }
      ],
      "name": "alumnos",
      "outputs": [
        {
          "name": "",
          "type": "address"
        }
      ],
      "payable": false,
      "stateMutability": "view",
      "type": "function"
    },
    {
      "constant": false,
      "inputs": [
        {
          "name": "alumnoId",
          "type": "uint256"
        }
      ],
      "name": "hire",
      "outputs": [
        {
          "name": "",
          "type": "uint256"
        }
      ],
      "payable": false,
      "stateMutability": "nonpayable",
      "type": "function"
    },
    {
      "constant": true,
      "inputs": [],
      "name": "getAlumnos",
      "outputs": [
        {
          "name": "",
          "type": "address[16]"
        }
      ],
      "payable": false,
      "stateMutability": "view",
      "type": "function"
    }
  ],
  "bytecode": "0x608060405234801561001057600080fd5b506102b0806100206000396000f3fe608060405234801561001057600080fd5b50600436106100415760003560e01c80636985665b1461004657806369ddcade1461008c578063c4a74b2b146100fa575b600080fd5b61004e61013c565b6040518082601060200280838360005b8381101561007957808201518184015260208101905061005e565b5050505090500191505060405180910390f35b6100b8600480360360208110156100a257600080fd5b81019080803590602001909291905050506101bd565b604051808273ffffffffffffffffffffffffffffffffffffffff1673ffffffffffffffffffffffffffffffffffffffff16815260200191505060405180910390f35b6101266004803603602081101561011057600080fd5b81019080803590602001909291905050506101f0565b6040518082815260200191505060405180910390f35b610144610261565b60006010806020026040519081016040528092919082601080156101b3576020028201915b8160009054906101000a900473ffffffffffffffffffffffffffffffffffffffff1673ffffffffffffffffffffffffffffffffffffffff1681526020019060010190808311610169575b5050505050905090565b600081601081106101ca57fe5b016000915054906101000a900473ffffffffffffffffffffffffffffffffffffffff1681565b6000808210158015610203575060038211155b61020c57600080fd5b336000836010811061021a57fe5b0160006101000a81548173ffffffffffffffffffffffffffffffffffffffff021916908373ffffffffffffffffffffffffffffffffffffffff160217905550819050919050565b60405180610200016040528060109060208202803883398082019150509050509056fea165627a7a723058207f390a00dcccc611c6dace9213e79c296db5aad465d2a96affeef9a7c87005f10029",
  "source": "pragma solidity ^0.5.0; /* Solitidy version to compile */\r\n\r\n/* Declaras el contrato de Adoption*/\r\ncontract Hiring {\r\n    address[16] public alumnos;\r\n\r\n    // Adoptando un perro y la función Adoption recibe el parámetro del alumnoId\r\n    function hire(uint alumnoId) public returns (uint) {\r\n        require(alumnoId >= 0 && alumnoId <= 3);\r\n\r\n        alumnos[alumnoId] = msg.sender; //Almacena el valor del sender que es persona que Adopta el perro\r\n\r\n        return alumnoId;\r\n    }\r\n\r\n    // Retrieving the alumnos\r\n    function getAlumnos() public view returns (address[16] memory) {\r\n        return alumnos;\r\n    }\r\n\r\n}\r\n",
  "sourcePath": "C:/Users/Dulce/Documents/dev/petrsk/contracts/Hiring.sol",
  "compiler": {
    "name": "solc",
    "version": "0.5.8+commit.23d335f2.Emscripten.clang"
  },
  "schemaVersion": "3.0.16",
  "updatedAt": "2019-11-20T19:43:07.825Z",
  "devdoc": {
    "methods": {}
  },
  "userdoc": {
    "methods": {}
  }
}